:100000000C9455010C943B070C9410070C94E506D6
:100010000C94BA060C948F060C9464060C94390662
:100020000C940E060C9486010C9486010C948601A7
:100030000C9486010C9486010C9486010C94860124
:100040000C9486010C9486010C9486010C94860114
:100050000C9486010C9486010C9486010C94C405C2
:100060000C9486010C948E050C9464050C94860106
:100070000C9486010C9486010C9486010C948601E4
:100080000C9486010C9486010C9486010C948601D4
:100090000C9486010C9486010C9486010C948601C4
:1000A0000C9486010C9486010C9486010C948601B4
:1000B0000C9486010C9486010C9486010C948601A4
:1000C0000C9486010C9486010C9486010C94860194
:1000D0000C9486010C9486010C9486010C94860184
:1000E0000C9486010C94A7010C9430040C94CB035F
:1000F0000C94EF030C940D040C94A0020C94E901F1
:100100000C9473030C94C1030C9451030C94570387
:100110000C9477030C94870A0C941C040C94F9013A
:100120000C943A040C94E7030C9466070C9469034E
:100130000C944E040C9453020C9444040C94260327
:100140000C946D030C9444030C94EA010C945B032F
:100150000C94B4030C943C030C94D5030C9421032D
:100160000C9426040C9403040C94F9030C941B02C5
:100170000C940D020C945F030C94BC030C94D701F7
:100180000C94E2010C9465030C9447030C9438031F
:100190000C9440030C94B6040C944D030C94DF03B0
:1001A00000000A0B02090C0D0E08070304010000F1
:1001B000000000000000000000000000000000003F
:1001C00000000000000000000000000012111000FC
:1001D000000000000000000000000000000000001F
:1001E00000000000000000002200250028002B0075
:1001F0002E003100340002010000050108010B014E
:1002000000002100240027002A002D0030003300C8
:1002100001010000040107010A01050505050705A4
:1002200008080808020202020A0A08080404040472
:10023000010101010101010103030303030303039E
:10024000040707070C0C0C0C0C0C0C0C020202022D
:1002500006060606060606060B0B0B0B0B0B0B0B16
:1002600001021020200808102040102040800201C8
:1002700002010804020101020408102040808040AD
:1002800020100804020180040201804020100804AC
:10029000020108040201010204081020408001024A
:1002A0000408102040806607870A11241FBECFEF84
:1002B000D1E2DEBFCDBF00E00CBF23E0A8E5B2E095
:1002C00001C01D92AC36B207E1F712E0A0E0B2E047
:1002D000EAEFF5E100E00BBF02C007900D92A835F0
:1002E000B107D9F711E0C4E5D1E000E006C02197DD
:1002F0000109802FFE010E94E30AC335D10780E087
:100300000807A9F70E94D6070C94EB0A0C9400008A
:1003100090E0FC01E05AFD4F2491865E9D4FFC0168
:100320008491882399F090E0880F991FFC01E05098
:10033000FE4FA591B491FC01EA51FE4F8591949135
:100340008FB7F894EC91E22BEC938FBF0895AF92A6
:10035000BF92CF92DF92EF92FF920F931F93CF93B2
:10036000DF936C017B018B01040F151FEB015E0114
:10037000AE18BF08C017D10759F06991D601ED91A9
:10038000FC910190F081E02DC6011995892B79F738
:10039000C501DF91CF911F910F91FF90EF90DF90FA
:1003A000CF90BF90AF9008958091100208958091F2
:1003B0006102873020F48F5F80936102089510926C
:1003C000610208958091100291E0892780931002C4
:1003D00008950895FC01538D448D252F30E0842F1E
:1003E00090E0821B930B541710F0CF96089501975D
:1003F0000895FC01918D828D981761F0A28DAE0F4A
:10040000BF2FB11D5D968C91928D9F5F9F73928FD0
:1004100090E008958FEF9FEF0895FC01918D828DFC
:10042000981731F0828DE80FF11D858D90E00895C9
:100430008FEF9FEF0895FC01918D228D892F90E021
:10044000805C9F4F821B91098F739927089586E6E0
:1004500092E00E941B0221E0892B09F420E0822F08
:100460000895FC01A48DA80FB92FB11DA35ABF4F49
:100470002C91848D90E001968F739927848FA689A3
:10048000B7892C93A089B1898C91837080648C93F7
:10049000938D848D981306C00288F389E02D8081A6
:1004A0008F7D80830895EF92FF920F931F93CF93D8
:1004B000DF93EC0181E0888F9B8D8C8D98131AC09F
:1004C000E889F989808185FF15C09FB7F894EE8986
:1004D000FF896083E889F9898081837080648083E3
:1004E0009FBF81E090E0DF91CF911F910F91FF902E
:1004F000EF900895F62E0B8D10E00F5F1F4F0F73D6
:100500001127E02E8C8D8E110CC00FB607FCFACF90
:10051000E889F989808185FFF5CFCE010E943102FB
:10052000F1CFEB8DEC0FFD2FF11DE35AFF4FF08261
:100530009FB7F8940B8FEA89FB8980818062CFCFC7
:10054000CF93DF93EC01888D8823B9F0AA89BB890A
:10055000E889F9898C9185FD03C0808186FD0DC0F5
:100560000FB607FCF7CF8C9185FFF2CF808185FF16
:10057000EDCFCE010E943102E9CFDF91CF910895F6
:1005800080E090E0892B29F00E94270281110E94CF
:10059000000080E090E0892B49F080E090E0892B1A
:1005A00029F00E94000081110E94000080E090E08C
:1005B000892B49F080E090E0892B29F00E9400000F
:1005C00081110E94000080E090E0892B49F080E0DA
:1005D00090E0892B29F00E94000081110C9400000A
:1005E0000895282F30E0F901E056FE4F9491F9016B
:1005F000E05AFD4F4491265E3D4FF901249122239C
:1006000009F435C0992311F191509231F8F4E92F92
:10061000F0E08827E15FFC4F8F4F0C94E30A400322
:100620004403210338033C03260347034D035103CE
:1006300057035B035F036503690326036D037303BD
:100640007703809180008F7780938000E22FF0E025
:10065000EE0FFF1FEA51FE4FA591B4918FB7F894AA
:10066000EC91611148C040954E234C938FBF089583
:10067000809180008F7DE8CF80918000877FE4CFDC
:1006800084B58F7784BDE2CF84B58F7DFBCF809119
:10069000B0008F778093B000D9CF8091B0008F7D6C
:1006A000F9CF809190008F7780939000CFCF809189
:1006B00090008F7DF9CF80919000877FF5CF80915A
:1006C000A0008F778093A000C1CF8091A0008F7D84
:1006D000F9CF8091A000877FF5CF809120018F779F
:1006E00080932001B3CF809120018F7DF9CF80913D
:1006F0002001877FF5CF4E2BB8CF1F93CF93DF9389
:10070000182FEB010E948801209739F460E0812FB7
:10071000DF91CF911F910C94F102CF3FD10511F4DD
:1007200061E0F5CFE12FF0E0E056FE4FE491E150BB
:10073000E23108F0B3C0F0E08827EE55FC4F8F4F50
:100740000C94E30AB403BC03C103CB03D5034E04EA
:10075000DF03E703EF03F90303040D041C0426047D
:100760004E0430043A04440484B5806884BDC7BD97
:10077000DF91CF911F91089584B5806284BDC8BD7B
:10078000F7CF80918000806880938000D0938900AB
:10079000C0938800EDCF80918000806280938000BC
:1007A000D0938B00C0938A00E3CF80918000886053
:1007B00080938000D0938D00C0938C00D9CF80911E
:1007C000B00080688093B000C093B300D1CF809117
:1007D000B00080628093B000C093B400C9CF809114
:1007E0009000806880939000D0939900C093980007
:1007F000BFCF80919000806280939000D0939B0047
:10080000C0939A00B5CF809190008860809390004B
:10081000D0939D00C0939C00ABCF8091A0008068D6
:100820008093A0008091A0008F7B8093A000D09344
:10083000A900C093A8009CCF8091A0008062809303
:10084000A000D093AB00C093AA0092CF8091A000EB
:1008500088608093A000D093AD00C093AC0088CF97
:1008600080912001806880932001D0932901C0935A
:1008700028017ECF80912001806280932001D09357
:100880002B01C0932A0174CF80912001886080934E
:100890002001D0932D01C0932C016ACFC038D1051F
:1008A0000CF03ECF33CF3FB7F89480915D0290912A
:1008B0005E02A0915F02B091600226B5A89B05C0C0
:1008C0002F3F19F00196A11DB11D3FBFBA2FA92FCF
:1008D000982F8827BC01CD01620F711D811D911DCC
:1008E00042E0660F771F881F991F4A95D1F7089538
:1008F0008F929F92AF92BF92CF92DF92EF92FF9230
:100900004B015C010E9453046B017C010E94530463
:100910006C197D098E099F09683E73408105910518
:10092000A8F321E0821A9108A108B10888EEC80E48
:1009300083E0D81EE11CF11C81149104A104B104D0
:1009400029F7FF90EF90DF90CF90BF90AF909F90EE
:100950008F9008952FB7F8946091590270915A02C0
:1009600080915B0290915C022FBF08950895CF9310
:10097000DF93EC018C810E9488018D810E948801A7
:100980008E81DF91CF910C948801FC0101900020B1
:10099000E9F73197AF01481B590BBC0186E692E09D
:1009A0000C94A7018F929F92AF92BF920F931F93C7
:1009B000CF93DF93CDB7DEB7A1970FB6F894DEBF24
:1009C0000FBECDBF19A2423008F44AE08E010F5D80
:1009D0001F4F842E912CB12CA12CA50194010E94B3
:1009E000C10AE62FB901CA01EA30F4F4E05DD8018A
:1009F000EE938D01232B242B252B79F790E080E0BB
:100A0000109719F0CD010E94C504A1960FB6F89475
:100A1000DEBF0FBECDBFDF91CF911F910F91BF9071
:100A2000AF909F908F900895E95CE1CFEF92FF9295
:100A30000F931F93CF93DF9300D01F92CDB7DEB7F4
:100A400086E692E00E94F90186E692E00E94F901B2
:100A50008E010F5F1F4F78018A3341F0F8018193B7
:100A60008F0186E692E00E94F901F6CFC7010E944D
:100A70009B0A182F86E692E00E94F9018053990B99
:100A80008230910520F4682F812F0E94F10286E6C2
:100A900092E00E94F9018A3011F08D30C1F786E6AC
:100AA00092E00E940D028A3021F486E692E00E94D4
:100AB000F9010F900F900F900F90DF91CF911F9140
:100AC0000F91FF90EF9008951F920F920FB60F9223
:100AD00011240BB60F922F933F934F935F936F9315
:100AE0007F938F939F93AF93BF93EF93FF9386E68C
:100AF00092E00E943102FF91EF91BF91AF919F91DF
:100B00008F917F916F915F914F913F912F910F90B6
:100B10000BBE0F900FBE0F901F9018951F920F9253
:100B20000FB60F9211240BB60F922F938F939F93B2
:100B3000EF93FF93E0917602F09177028081E0914C
:100B40007C02F0917D0282FD1DC0908180917F0228
:100B50008F5F8F7320918002821741F0E0917F02B6
:100B6000F0E0EA59FD4F958F80937F02FF91EF915E
:100B70009F918F912F910F900BBE0F900FBE0F90F2
:100B80001F9018958081F2CF1F920F920FB60F928F
:100B900011242F933F938F939F93AF93BF93809193
:100BA000590290915A02A0915B02B0915C0230917F
:100BB000580223E0230F2D3758F50196A11DB11DD2
:100BC000209358028093590290935A02A0935B029B
:100BD000B0935C0280915D0290915E02A0915F02F1
:100BE000B09160020196A11DB11D80935D029093AA
:100BF0005E02A0935F02B0936002BF91AF919F919C
:100C00008F913F912F910F900FBE0F901F901895CD
:100C100026E8230F0296A11DB11DD2CF1F920F927D
:100C20000FB60F9211240BB60F922F933F934F9351
:100C30005F936F937F938F939F93AF93BF93EF9344
:100C4000FF93E0910E02F0910F021995FF91EF9141
:100C5000BF91AF919F918F917F916F915F914F91D4
:100C60003F912F910F900BBE0F900FBE0F901F90D2
:100C700018951F920F920FB60F9211240BB60F9278
:100C80002F933F934F935F936F937F938F939F9394
:100C9000AF93BF93EF93FF93E0910C02F0910D029D
:100CA0001995FF91EF91BF91AF919F918F917F9196
:100CB0006F915F914F913F912F910F900BBE0F90CD
:100CC0000FBE0F901F9018951F920F920FB60F92A4
:100CD00011240BB60F922F933F934F935F936F9313
:100CE0007F938F939F93AF93BF93EF93FF93E09185
:100CF0000202F09103021995FF91EF91BF91AF911C
:100D00009F918F917F916F915F914F913F912F9123
:100D10000F900BBE0F900FBE0F901F9018951F9253
:100D20000F920FB60F9211240BB60F922F933F9391
:100D30004F935F936F937F938F939F93AF93BF93E3
:100D4000EF93FF93E0910002F09101021995FF915A
:100D5000EF91BF91AF919F918F917F916F915F9133
:100D60004F913F912F910F900BBE0F900FBE0F90A0
:100D70001F9018951F920F920FB60F9211240BB669
:100D80000F922F933F934F935F936F937F938F9324
:100D90009F93AF93BF93EF93FF93E0910A02F0917B
:100DA0000B021995FF91EF91BF91AF919F918F9198
:100DB0007F916F915F914F913F912F910F900BBE5B
:100DC0000F900FBE0F901F9018951F920F920FB6A5
:100DD0000F9211240BB60F922F933F934F935F9373
:100DE0006F937F938F939F93AF93BF93EF93FF93F3
:100DF000E0910802F09109021995FF91EF91BF91DE
:100E0000AF919F918F917F916F915F914F913F91A2
:100E10002F910F900BBE0F900FBE0F901F90189543
:100E20001F920F920FB60F9211240BB60F922F93B1
:100E30003F934F935F936F937F938F939F93AF9362
:100E4000BF93EF93FF93E0910602F091070219958B
:100E5000FF91EF91BF91AF919F918F917F916F9192
:100E60005F914F913F912F910F900BBE0F900FBE4E
:100E70000F901F9018951F920F920FB60F9211248A
:100E80000BB60F922F933F934F935F936F937F9384
:100E90008F939F93AF93BF93EF93FF93E0910402DF
:100EA000F09105021995FF91EF91BF91AF919F913C
:100EB0008F917F916F915F914F913F912F910F9003
:100EC0000BBE0F900FBE0F901F90189510926902E5
:100ED0001092680288EE93E0A0E0B0E080936A028E
:100EE00090936B02A0936C02B0936D028AE192E042
:100EF000909367028093660285EC90E09093730272
:100F00008093720284EC90E0909375028093740257
:100F100080EC90E0909377028093760281EC90E0F1
:100F2000909379028093780282EC90E090937B0218
:100F300080937A0286EC90E090937D0280937C020D
:100F400010927F021092800210928102109282020F
:100F50001092090310920A0310920B0310920C03D3
:100F600010920D0310920E0310920F0310921003B3
:100F70001092110310921203109213031092140393
:100F80001092150310921603109217031092180373
:100F9000E9E4F3E08FEF91E08083818382839383A0
:100FA000379623E0EC36F207B9F70895CF93DF9335
:100FB00000D000D01F92CDB7DEB7789484B58260A0
:100FC00084BD84B5816084BD85B5826085BD85B5ED
:100FD000816085BD80916E00816080936E0010926B
:100FE00081008091810082608093810080918100E6
:100FF0008160809381008091800081608093800077
:101000008091B10084608093B1008091B0008160D4
:101010008093B000809191008260809391008091D4
:101020009100816080939100809190008160809315
:1010300090008091A10082608093A1008091A10026
:1010400081608093A1008091A00081608093A000C6
:101050008091210182608093210180912101816032
:1010600080932101809120018160809320018091F3
:101070007A00846080937A0080917A008260809305
:101080007A0080917A00816080937A0080917A0062
:10109000806880937A001092C100109245031092EC
:1010A00046031092470310924803109205031092D2
:1010B000060310920703109208030E94AA046B0112
:1010C0007C014B015C0128EB820E2BE0921EA11CDF
:1010D000B11C0E94AA046C157D058E059F0528F0A1
:1010E00086169706A806B906A0F768EE73E080E0BA
:1010F00090E00E947804E0917602F091770282E01D
:101100008083E0917202F09173021082E091740288
:10111000F091750280E1808310927E02E0917A0264
:10112000F0917B0286E08083E0917802F091790271
:10113000808180618083E0917802F09179028081E2
:1011400088608083E0917802F091790280818068E4
:101150008083E0917802F091790280818F7D808395
:101160000E94AA046093050370930603809307030B
:101170009093080388E292E00E94C5040E94AA04AA
:101180006B017C014B015C013AE0830E911CA11CB8
:10119000B11C0E94AA046C157D058E059F0528F0E0
:1011A00086169706A806B906A0F781E08093190372
:1011B0000E94AA04609305037093060380930703BB
:1011C0009093080389E392E00E94C50487ED91E0C3
:1011D000909307028093060280916900837F809339
:1011E0006900E99A82EE91E09093050280930402EF
:1011F000809169008C7F80936900E89A89EE91E084
:101200009093050280930402809169008C7F809303
:101210006900E89A09E413E091E1C92E92E0D92E21
:10122000FF24FA94EE24E39443E00C36140709F00B
:10123000FEC084EF882E99249394A12CB12C11E048
:101240000E94AA04672B682B692B09F430C10E9405
:10125000AA04C0906202D0906302E0906402F09011
:1012600065026C157D058E059F0508F433C1C0909D
:101270006202D0906302E0906402F09065029B01EC
:10128000AC012C193D094E095F0969017A013AEF59
:10129000C316D104E104F10408F411C160936202A1
:1012A00070936302809364029093650280921103AD
:1012B00090921203A0921303B0921403109215039C
:1012C00010921603109217031092180380910903CD
:1012D00090910A03A0910B03B0910C0380930D032E
:1012E00090930E03A0930F03B09310030E94AA04DF
:1012F0006093090370930A0380930B0390930C038C
:1013000086E692E00E940D02843611F40E941605D2
:101310000E94AA0460930503709306038093070359
:10132000909308030E94AA046B017C0180E492E080
:101330000E94C5044AE061E070E080E090E00E9415
:10134000D20487E492E00E94C5044AE0C701B601D6
:101350000E94D20489E492E00E94C50480910903AE
:1013600090910A03A0910B03B0910C03A701960181
:10137000281B390B4A0B5B0BCA01B9014AE00E94DA
:10138000D20489E492E00E94C5046091090370913F
:101390000A0380910B0390910C03C0900D03D09031
:1013A0000E03E0900F03F09010036C197D098E0975
:1013B0009F094AE00E94D2048BE492E00E94C50497
:1013C0000E94AA044AE00E94D2048DE492E00E94A6
:1013D000C50484E592E00E94C5040E94AA046B0142
:1013E0007C012B013C0132E0430E511C611C711C3D
:1013F0000E94AA046C157D058E059F0528F04616EF
:10140000570668067906A0F786E692E00E940D026C
:10141000843611F40E9416050E94AA046093090301
:1014200070930A0380930B0390930C0348C0F6015A
:1014300081916F01F982FA82FB82EC828D8391E0C7
:10144000980F9E8392E0980F9F830E9488018E815F
:101450000E9488018F810E948801698170E08D81DE
:101460000E947D036A8170E08E810E947D036B8102
:1014700070E08F810E947D0389818823B1F08A8189
:10148000882399F08B81882381F0EC8287E0FE012C
:101490003196D80101900D928A95E1F7CE0101961F
:1014A0000E94B704095F1F4FBFCE1C82EFCF0E947E
:1014B000AA04623071058105910508F0C8CE109329
:1014C000100280916102882371F08830E8F40E9454
:1014D000C002B6CE6093620270936302809364028E
:1014E00090936502C4CE80914C03812780934C0376
:1014F0008091530381278093530360ED77E080E070
:1015000090E00E947804E3CF10926102E0CF85E67C
:1015100093E00E94B7048EE593E00E94B70487E54C
:1015200093E00E94B70480E593E00E94B70489E449
:1015300093E00C94B704FC0188279927E894219143
:101540002032E9F3293010F02E30C8F32B3241F06D
:101550002D3239F4689404C00E94B90A820F911D9B
:10156000219120532A30C0F31EF4909581959F4F0E
:1015700008957AE0979F902D879F802D910D1124DB
:101580000895A1E21A2EAA1BBB1BFD010DC0AA1FC4
:10159000BB1FEE1FFF1FA217B307E407F50720F0DC
:1015A000A21BB30BE40BF50B661F771F881F991F57
:1015B0001A9469F760957095809590959B01AC01A0
:1015C000BD01CF010895EE0FFF1F881F8BBF07904D
:1015D000F691E02D199411E0C4E5D1E000E006C0D9
:1015E000802FFE010E94E30A2196011DC535D10717
:0A15F00080E00807A9F7F894FFCF88
:1015FA00B604B604B604B604B604B604B604B60411
:10160A00010205080B2C000000005302A701EA01A1
:10161A00A0021B02F9010D02564D4450565F317C5F
:10162A00315F564D4450560A00564D4450525F00A1
:10163A00564D4450455F003A323A007C005F564DA1
:08164A00445045000D0A0000A8
:00000001FF
