:100000000C9455010C943D070C9412070C94E706D0
:100010000C94BC060C9491060C9466060C943B065A
:100020000C9410060C9486010C9486010C948601A5
:100030000C9486010C9486010C9486010C94860124
:100040000C9486010C9486010C9486010C94860114
:100050000C9486010C9486010C9486010C94C605C0
:100060000C9486010C9490050C9466050C94860102
:100070000C9486010C9486010C9486010C948601E4
:100080000C9486010C9486010C9486010C948601D4
:100090000C9486010C9486010C9486010C948601C4
:1000A0000C9486010C9486010C9486010C948601B4
:1000B0000C9486010C9486010C9486010C948601A4
:1000C0000C9486010C9486010C9486010C94860194
:1000D0000C9486010C9486010C9486010C94860184
:1000E0000C9486010C9453030C9446040C94C303A3
:1000F0000C94D7010C9423030C9442030C94A20299
:100100000C946B030C94FB030C9450040C94FB01B3
:100110000C9405040C94A7010C943C040C94D70394
:100120000C9428040C94EB010C9449030C943204B5
:100130000C9446030C9479030C94E9030C944F033C
:100140000C94E1030C940F020C9461030C94B8041A
:100150000C9467030C94E4010C94EC010C942803B8
:100160000C941E040C943A030C943E030C941D0250
:100170000C940F040C9468070C9475030C946F0393
:100180000C9455020C945D030C94BE030C94B603BE
:100190000C949A0A0C94CD030C9459030C94F1031B
:1001A00000000A0B02090C0D0E08070304010000F1
:1001B000000000000000000000000000000000003F
:1001C00000000000000000000000000012111000FC
:1001D000000000000000000000000000000000001F
:1001E00000000000000000002200250028002B0075
:1001F0002E003100340002010000050108010B014E
:1002000000002100240027002A002D0030003300C8
:1002100001010000040107010A01050505050705A4
:1002200008080808020202020A0A08080404040472
:10023000010101010101010103030303030303039E
:10024000040707070C0C0C0C0C0C0C0C020202022D
:1002500006060606060606060B0B0B0B0B0B0B0B16
:1002600001021020200808102040102040800201C8
:1002700002010804020101020408102040808040AD
:1002800020100804020180040201804020100804AC
:10029000020108040201010204081020408001024A
:1002A00004081020408068079A0A11241FBECFEF6F
:1002B000D1E2DEBFCDBF00E00CBF23E0A8E5B2E095
:1002C00001C01D92AD36B207E1F712E0A0E0B2E046
:1002D000E0E2F6E100E00BBF02C007900D92A83506
:1002E000B107D9F711E0C4E5D1E000E006C02197DD
:1002F0000109802FFE010E94F60AC335D10780E074
:100300000807A9F70E94D8070C94FE0A0C94000075
:1003100090E0FC01E05AFD4F2491865E9D4FFC0168
:100320008491882399F090E0880F991FFC01E05098
:10033000FE4FA591B491FC01EA51FE4F8591949135
:100340008FB7F894EC91E22BEC938FBF0895AF92A6
:10035000BF92CF92DF92EF92FF920F931F93CF93B2
:10036000DF936C017B018B01040F151FEB015E0114
:10037000AE18BF08C017D10759F06991D601ED91A9
:10038000FC910190F081E02DC6011995892B79F738
:10039000C501DF91CF911F910F91FF90EF90DF90FA
:1003A000CF90BF90AF900895809100020895809102
:1003B0006202873030F48F5F809362021092610294
:1003C000089510926202FACF8091000291E089278D
:1003D0008093000208950895FC01538D448D252FCC
:1003E00030E0842F90E0821B930B541710F0CF96CF
:1003F000089501970895FC01918D828D981761F001
:10040000A28DAE0FBF2FB11D5D968C91928D9F5F17
:100410009F73928F90E008958FEF9FEF0895FC01F6
:10042000918D828D981731F0828DE80FF11D858DA9
:1004300090E008958FEF9FEF0895FC01918D228D3C
:10044000892F90E0805C9F4F821B91098F739927C1
:10045000089587E692E00E941D0221E0892B09F4AD
:1004600020E0822F0895FC01A48DA80FB92FB11DA3
:10047000A35ABF4F2C91848D90E001968F739927DA
:10048000848FA689B7892C93A089B1898C918370B8
:1004900080648C93938D848D981306C00288F389B1
:1004A000E02D80818F7D80830895EF92FF920F93DE
:1004B0001F93CF93DF93EC0181E0888F9B8D8C8D10
:1004C00098131AC0E889F989808185FF15C09FB704
:1004D000F894EE89FF896083E889F98980818370C7
:1004E000806480839FBF81E090E0DF91CF911F9176
:1004F0000F91FF90EF900895F62E0B8D10E00F5F97
:100500001F4F0F731127E02E8C8D8E110CC00FB66C
:1005100007FCFACFE889F989808185FFF5CFCE0104
:100520000E943302F1CFEB8DEC0FFD2FF11DE35A4A
:10053000FF4FF0829FB7F8940B8FEA89FB89808187
:100540008062CFCFCF93DF93EC01888D8823B9F001
:10055000AA89BB89E889F9898C9185FD03C08081CE
:1005600086FD0DC00FB607FCF7CF8C9185FFF2CF4B
:10057000808185FFEDCFCE010E943302E9CFDF916C
:10058000CF91089580E090E0892B29F00E94290204
:1005900081110E94000080E090E0892B49F080E00A
:1005A00090E0892B29F00E94000081110E94000038
:1005B00080E090E0892B49F080E090E0892B29F0E1
:1005C0000E94000081110E94000080E090E0892BD1
:1005D00049F080E090E0892B29F00E940000811111
:1005E0000C9400000895282F30E0F901E056FE4FEA
:1005F0009491F901E05AFD4F4491265E3D4FF90177
:100600002491222309F435C0992311F1915092319C
:10061000F8F4E92FF0E08827EF5EFC4F8F4F0C9441
:10062000F60A4203460323033A033E032803490321
:100630004F03530359035D03610367036B032803EF
:100640006F0375037903809180008F77809380001A
:10065000E22FF0E0EE0FFF1FEA51FE4FA591B4919B
:100660008FB7F894EC91611148C040954E234C939C
:100670008FBF0895809180008F7DE8CF80918000AA
:10068000877FE4CF84B58F7784BDE2CF84B58F7D3B
:10069000FBCF8091B0008F778093B000D9CF80914D
:1006A000B0008F7DF9CF809190008F77809390007C
:1006B000CFCF809190008F7DF9CF80919000877F80
:1006C000F5CF8091A0008F778093A000C1CF80915B
:1006D000A0008F7DF9CF8091A000877FF5CF80911A
:1006E00020018F7780932001B3CF809120018F7DEF
:1006F000F9CF80912001877FF5CF4E2BB8CF1F9384
:10070000CF93DF93182FEB010E948801209739F4D3
:1007100060E0812FDF91CF911F910C94F302CF3FC6
:10072000D10511F461E0F5CFE12FF0E0E056FE4F86
:10073000E491E150E23108F0B3C0F0E08827EC55D5
:10074000FC4F8F4F0C94F60AB603BE03C303CD03D0
:10075000D7035004E103E903F103FB0305040F048D
:100760001E042804500432043C04460484B5806806
:1007700084BDC7BDDF91CF911F91089584B580627C
:1007800084BDC8BDF7CF80918000806880938000D1
:10079000D0938900C0938800EDCF80918000806263
:1007A00080938000D0938B00C0938A00E3CF809128
:1007B0008000886080938000D0938D00C0938C006F
:1007C000D9CF8091B00080688093B000C093B3000F
:1007D000D1CF8091B00080628093B000C093B4000C
:1007E000C9CF80919000806880939000D093990049
:1007F000C0939800BFCF809190008062809390005A
:10080000D0939B00C0939A00B5CF809190008860F0
:1008100080939000D0939D00C0939C00ABCF8091BB
:10082000A00080688093A0008091A0008F7B8093BF
:10083000A000D093A900C093A8009CCF8091A000F5
:1008400080628093A000D093AB00C093AA0092CFA7
:100850008091A00088608093A000D093AD00C093E9
:10086000AC0088CF80912001806880932001D093D4
:100870002901C09328017ECF80912001806280935E
:100880002001D0932B01C0932A0174CF80912001C5
:10089000886080932001D0932D01C0932C016ACFF2
:1008A000C038D1050CF03ECF33CF3FB7F8948091DC
:1008B0005D0290915E02A0915F02B091600226B548
:1008C000A89B05C02F3F19F00196A11DB11D3FBF88
:1008D000BA2FA92F982F8827BC01CD01620F711D57
:1008E000811D911D42E0660F771F881F991F4A9551
:1008F000D1F708958F929F92AF92BF92CF92DF92DD
:10090000EF92FF924B015C010E9455046B017C0148
:100910000E9455046C197D098E099F09683E734039
:1009200081059105A8F321E0821A9108A108B10878
:1009300088EEC80E83E0D81EE11CF11C81149104DE
:10094000A104B10429F7FF90EF90DF90CF90BF9002
:10095000AF909F908F9008952FB7F89460915902AF
:1009600070915A0280915B0290915C022FBF0895B2
:100970000895CF93DF93EC018C810E9488018D81D3
:100980000E9488018E81DF91CF910C948801FC0137
:1009900001900020E9F73197AF01481B590BBC01CA
:1009A00087E692E00C94A7018F929F92AF92BF923C
:1009B0000F931F93CF93DF93CDB7DEB7A1970FB6F9
:1009C000F894DEBF0FBECDBF19A2423008F44AE052
:1009D0008E010F5D1F4F842E912CB12CA12CA501EF
:1009E00094010E94D40AE62FB901CA01EA30F4F456
:1009F000E05DD801EE938D01232B242B252B79F775
:100A000090E080E0109719F0CD010E94C704A196F4
:100A10000FB6F894DEBF0FBECDBFDF91CF911F910F
:100A20000F91BF90AF909F908F900895E95CE1CFB8
:100A3000EF92FF920F931F93CF93DF9300D01F92FB
:100A4000CDB7DEB787E692E00E94FB0187E692E031
:100A50000E94FB018E010F5F1F4F78018A3341F026
:100A6000F80181938F0187E692E00E94FB01F6CFA7
:100A7000C7010E94AE0A182F87E692E00E94FB0190
:100A80008053990B8230910520F4682F812F0E94AA
:100A9000F30287E692E00E94FB018A3011F08D306C
:100AA000C1F787E692E00E940F028A3021F487E6C0
:100AB00092E00E94FB010F900F900F900F90DF913A
:100AC000CF911F910F91FF90EF9008951F920F9279
:100AD0000FB60F9211240BB60F922F933F934F93A3
:100AE0005F936F937F938F939F93AF93BF93EF9396
:100AF000FF9387E692E00E943302FF91EF91BF914E
:100B0000AF919F918F917F916F915F914F913F91A5
:100B10002F910F900BBE0F900FBE0F901F90189546
:100B20001F920F920FB60F9211240BB60F922F93B4
:100B30008F939F93EF93FF93E0917702F091780268
:100B40008081E0917D02F0917E0282FD1DC0908146
:100B5000809180028F5F8F7320918102821741F014
:100B6000E0918002F0E0E959FD4F958F809380027B
:100B7000FF91EF919F918F912F910F900BBE0F904E
:100B80000FBE0F901F9018958081F2CF1F920F9289
:100B90000FB60F9211242F933F938F939F93AF9390
:100BA000BF938091590290915A02A0915B02B0913B
:100BB0005C023091580223E0230F2D3758F501963F
:100BC000A11DB11D209358028093590290935A029F
:100BD000A0935B02B0935C0280915D0290915E02F3
:100BE000A0915F02B09160020196A11DB11D80939A
:100BF0005D0290935E02A0935F02B0936002BF918A
:100C0000AF919F918F913F912F910F900FBE0F90B9
:100C10001F90189526E8230F0296A11DB11DD2CF73
:100C20001F920F920FB60F9211240BB60F922F93B3
:100C30003F934F935F936F937F938F939F93AF9364
:100C4000BF93EF93FF93E0910F02F091100219957B
:100C5000FF91EF91BF91AF919F918F917F916F9194
:100C60005F914F913F912F910F900BBE0F900FBE50
:100C70000F901F9018951F920F920FB60F9211248C
:100C80000BB60F922F933F934F935F936F937F9386
:100C90008F939F93AF93BF93EF93FF93E0910D02D8
:100CA000F0910E021995FF91EF91BF91AF919F9135
:100CB0008F917F916F915F914F913F912F910F9005
:100CC0000BBE0F900FBE0F901F9018951F920F92A2
:100CD0000FB60F9211240BB60F922F933F934F93A1
:100CE0005F936F937F938F939F93AF93BF93EF9394
:100CF000FF93E0910302F09104021995FF91EF91A7
:100D0000BF91AF919F918F917F916F915F914F9123
:100D10003F912F910F900BBE0F900FBE0F901F9021
:100D200018951F920F920FB60F9211240BB60F92C7
:100D30002F933F934F935F936F937F938F939F93E3
:100D4000AF93BF93EF93FF93E0910102F091020202
:100D50001995FF91EF91BF91AF919F918F917F91E5
:100D60006F915F914F913F912F910F900BBE0F901C
:100D70000FBE0F901F9018951F920F920FB60F92F3
:100D800011240BB60F922F933F934F935F936F9362
:100D90007F938F939F93AF93BF93EF93FF93E091D4
:100DA0000B02F0910C021995FF91EF91BF91AF9159
:100DB0009F918F917F916F915F914F913F912F9173
:100DC0000F900BBE0F900FBE0F901F9018951F92A3
:100DD0000F920FB60F9211240BB60F922F933F93E1
:100DE0004F935F936F937F938F939F93AF93BF9333
:100DF000EF93FF93E0910902F0910A021995FF9198
:100E0000EF91BF91AF919F918F917F916F915F9182
:100E10004F913F912F910F900BBE0F900FBE0F90EF
:100E20001F9018951F920F920FB60F9211240BB6B8
:100E30000F922F933F934F935F936F937F938F9373
:100E40009F93AF93BF93EF93FF93E0910702F091CD
:100E500008021995FF91EF91BF91AF919F918F91EA
:100E60007F916F915F914F913F912F910F900BBEAA
:100E70000F900FBE0F901F9018951F920F920FB6F4
:100E80000F9211240BB60F922F933F934F935F93C2
:100E90006F937F938F939F93AF93BF93EF93FF9342
:100EA000E0910502F09106021995FF91EF91BF9133
:100EB000AF919F918F917F916F915F914F913F91F2
:100EC0002F910F900BBE0F900FBE0F901F90189593
:100ED00010926A021092690288EE93E0A0E0B0E0FE
:100EE00080936B0290936C02A0936D02B0936E029C
:100EF0008AE192E0909368028093670285EC90E02B
:100F0000909374028093730284EC90E09093760245
:100F10008093750280EC90E0909378028093770242
:100F200081EC90E090937A028093790282EC90E0D9
:100F300090937C0280937B0286EC90E090937E02FB
:100F400080937D02109280021092810210928202A0
:100F50001092830210920A0310920B0310920C035A
:100F600010920D0310920E0310920F0310921003B3
:100F70001092110310921203109213031092140393
:100F80001092150310921603109217031092180373
:100F900010921903EAE4F3E08FEF91E080838183FC
:100FA00082839383379623E0ED36F207B9F70895ED
:100FB000CF93DF9300D000D01F92CDB7DEB77894E7
:100FC00084B5826084BD84B5816084BD85B582604E
:100FD00085BD85B5816085BD80916E0081608093FF
:100FE0006E00109281008091810082608093810068
:100FF0008091810081608093810080918000816078
:10100000809380008091B10084608093B1008091D2
:10101000B00081608093B0008091910082608093E5
:101020009100809191008160809391008091900067
:101030008160809390008091A10082608093A100E4
:101040008091A10081608093A1008091A0008160C7
:101050008093A00080912101826080932101809182
:101060002101816080932101809120018160809322
:10107000200180917A00846080937A0080917A00C8
:10108000826080937A0080917A00816080937A00F8
:1010900080917A00806880937A001092C10010924B
:1010A000460310924703109248031092490310928E
:1010B00006031092070310920803109209030E947E
:1010C000AC046B017C014B015C0128EB820E2BE030
:1010D000921EA11CB11C0E94AC046C157D058E05EE
:1010E0009F0528F086169706A806B906A0F768EEB1
:1010F00073E080E090E00E947A04E0917702F09142
:10110000780282E08083E0917302F0917402108291
:10111000E0917502F091760280E1808310927F0267
:10112000E0917B02F0917C0286E08083E09179027D
:10113000F0917A02808180618083E0917902F09160
:101140007A02808188608083E0917902F0917A024E
:10115000808180688083E0917902F0917A028081B9
:101160008F7D80830E94AC04609306037093070315
:10117000809308039093090388E292E00E94C704D9
:101180000E94AC046B017C014B015C013AE0830ED0
:10119000911CA11CB11C0E94AC046C157D058E0530
:1011A0009F0528F086169706A806B906A0F781E0E5
:1011B00080931A030E94AC046093060370930703A4
:1011C000809308039093090389E392E00E94C70487
:1011D00087ED91E090930802809307028091690067
:1011E000837F80936900E99A84EE91E090930602F0
:1011F00080930502809169008C7F80936900E89A52
:101200008BEE91E090930602809305028091690035
:101210008C7F80936900E89A0AE413E091E1C92E7B
:1012200092E0D92E2DE6A22E23E0B22EFF24FA94CE
:10123000EE24E394A016B10609F0FEC084EF882ED8
:1012400099249394A12CB12C11E00E94AC04672B3B
:10125000682B692B09F430C10E94AC04C090630272
:10126000D0906402E0906502F09066026C157D05F6
:101270008E059F0508F432C1C0906302D0906402CD
:10128000E0906502F09066029B01AC012C193D09CB
:101290004E095F0969017A013AEFC316D104E104EE
:1012A000F10408F411C160936302709364028093A7
:1012B0006502909366028092120390921303A092AB
:1012C0001403B09215031092160310921703109294
:1012D00018031092190380910A0390910B03A091B7
:1012E0000C03B0910D0380930E0390930F03A09312
:1012F0001003B09311030E94AC0460930A0370932F
:101300000B0380930C0390930D0387E692E00E94F9
:101310000F02843611F40E9418050E94AC046093F9
:1013200006037093070380930803909309030E94B8
:10133000AC046B017C0180E492E00E94C7044AE0A7
:1013400061E070E080E090E00E94D40487E492E0E5
:101350000E94C7044AE0C701B6010E94D40489E490
:1013600092E00E94C70480910A0390910B03A09120
:101370000C03B0910D03A7019601281B390B4A0BF2
:101380005B0BCA01B9014AE00E94D40489E492E0EF
:101390000E94C70460910A0370910B0380910C03B3
:1013A00090910D03C0900E03D0900F03E0901003B6
:1013B000F09011036C197D098E099F094AE00E9483
:1013C000D4048BE492E00E94C7040E94AC044AE07B
:1013D0000E94D4048DE492E00E94C70484E592E068
:1013E0000E94C7040E94AC046B017C012B013C01EC
:1013F00032E0430E511C611C711C0E94AC046C1540
:101400007D058E059F0528F0461657066806790665
:10141000A0F787E692E00E940F02843611F40E9442
:1014200018050E94AC0460930A0370930B03809329
:101430000C0390930D0348C0F60181916F01F9826E
:10144000FA82FB82EC828D8391E0980F9E8392E07A
:10145000980F9F830E9488018E810E9488018F814E
:101460000E948801698170E08D810E947F036A81FA
:1014700070E08E810E947F036B8170E08F810E94FB
:101480007F0389818823B1F08A81882399F08B8139
:10149000882381F0EC8287E0FE013196D80101902B
:1014A0000D928A95E1F7CE0101960E94B904095F79
:1014B0001F4FC0CE1C82EFCF0E94AC04623071057A
:1014C0008105910508F0C8CE90916202913001F13A
:1014D00070F0983060F50E94C202B7CE609363024C
:1014E000709364028093650290936602C5CE8091EA
:1014F0004D03812780934D0380915403812780936E
:10150000540360ED77E080E090E00E947A04E3CF3E
:101510008091610290934D0310925403823020F425
:101520008F5F80936102EDCF10926102EACF10923B
:101530006202D1CF86E693E00E94B9048FE593E082
:101540000E94B90488E593E00E94B90481E593E024
:101550000E94B9048AE493E00C94B904FC01882742
:101560009927E89421912032E9F3293010F02E30A8
:10157000C8F32B3241F02D3239F4689404C00E9434
:10158000CC0A820F911D219120532A30C0F31EF402
:10159000909581959F4F08957AE0979F902D879F12
:1015A000802D910D11240895A1E21A2EAA1BBB1BB8
:1015B000FD010DC0AA1FBB1FEE1FFF1FA217B3071F
:1015C000E407F50720F0A21BB30BE40BF50B661F35
:1015D000771F881F991F1A9469F7609570958095F9
:1015E00090959B01AC01BD01CF010895EE0FFF1F47
:1015F000881F8BBF0790F691E02D199411E0C4E588
:10160000D1E000E006C0802FFE010E94F60A21967C
:10161000011DC535D10780E00807A9F7F894FFCF71
:1016200001B804B804B804B804B804B804B804B8DD
:10163000040205080B2C000000005502A701EC0174
:10164000A2021D02FB010F02564D4450565F317C31
:10165000315F564D4450560A00564D4450525F007B
:10166000564D4450455F003A323A007C005F564D7B
:08167000445045000D0A000082
:00000001FF
