:100000000C944D010C947E010C947E010C947E01A5
:100010000C947E010C947E010C947E010C947E0164
:100020000C947E010C947E010C947E010C947E0154
:100030000C947E010C947E010C947E010C947E0144
:100040000C947E010C947E010C947E010C947E0134
:100050000C947E010C947E010C947E010C9473052B
:100060000C947E010C943D050C9413050C947E01B8
:100070000C947E010C947E010C947E010C947E0104
:100080000C947E010C947E010C947E010C947E01F4
:100090000C947E010C947E010C947E010C947E01E4
:1000A0000C947E010C947E010C947E010C947E01D4
:1000B0000C947E010C947E010C947E010C947E01C4
:1000C0000C947E010C947E010C947E010C947E01B4
:1000D0000C947E010C947E010C947E010C947E01A4
:1000E0000C947E010C941C040C9429030C941E03A4
:1000F0000C94DB010C943D030C9408040C94FD015A
:100100000C9426030C94DB030C9459030C942F03DA
:100110000C944F030C9439030C9422030C94C903E0
:100120000C944B030C9433030C949F010C94260401
:100130000C9412040C94CC010C94FE030C94CB0888
:100140000C94B7030C9496030C9435020C94EF03B3
:100150000C94EF010C941A030C9455030C94A30314
:100160000C9441030C9482020C94E5030C9430042B
:100170000C9403030C9447030C949E030C94BD054C
:100180000C94AD030C94C1030C94D1030C9408039C
:1001900000000A0B02090C0D0E0807030401000001
:1001A000000000000000000000000000000000004F
:1001B000000000000000000000000000121110000C
:1001C000000000000000000000000000000000002F
:1001D00000000000000000002200250028002B0085
:1001E0002E003100340002010000050108010B015E
:1001F00000002100240027002A002D0030003300D9
:1002000001010000040107010A01050505050705B4
:1002100008080808020202020A0A08080404040482
:1002200001010101010101010303030303030303AE
:10023000040707070C0C0C0C0C0C0C0C020202023D
:1002400006060606060606060B0B0B0B0B0B0B0B26
:1002500001021020200808102040102040800201D8
:1002600002010804020101020408102040808040BD
:1002700020100804020180040201804020100804BC
:10028000020108040201010204081020408001025A
:10029000040810204080BD05CB0811241FBECFEFFD
:1002A000D1E2DEBFCDBF00E00CBF23E0ACE4B2E0A2
:1002B00001C01D92AC38B207E1F712E0A0E0B2E055
:1002C000E2E8F2E100E00BBF02C007900D92AC340F
:1002D000B107D9F711E0CCE4D1E000E006C02197E6
:1002E0000109802FFE010E942709CB34D10780E04D
:1002F0000807A9F70E9439060C942F090C940000F6
:1003000090E0FC01E05BFD4F2491865F9D4FFC0176
:100310008491882399F090E0880F991FFC01E051A7
:10032000FE4FA591B491FC01EA52FE4F8591949144
:100330008FB7F894EC91E22BEC938FBF0895AF92B6
:10034000BF92CF92DF92EF92FF920F931F93CF93C2
:10035000DF936C017B018B01040F151FEB015E0124
:10036000AE18BF08C017D10759F06991D601ED91B9
:10037000FC910190F081E02DC6011995892B79F748
:10038000C501DF91CF911F910F91FF90EF90DF900A
:10039000CF90BF90AF900895FC01538D448D252FD1
:1003A00030E0842F90E0821B930B541710F0CF960F
:1003B000089501970895FC01918D828D981761F041
:1003C000A28DAE0FBF2FB11D5D968C91928D9F5F58
:1003D0009F73928F90E008958FEF9FEF0895FC0137
:1003E000918D828D981731F0828DE80FF11D858DEA
:1003F00090E008958FEF9FEF0895FC01918D228D7D
:10040000892F90E0805C9F4F821B91098F73992701
:10041000089589E592E00E94FD0121E0892B09F40D
:1004200020E0822F0895FC01A48DA80FB92FB11DE3
:10043000A35ABF4F2C91848D90E001968F7399271A
:10044000848FA689B7892C93A089B1898C918370F8
:1004500080648C93938D848D981306C00288F389F1
:10046000E02D80818F7D80830895EF92FF920F931E
:100470001F93CF93DF93EC0181E0888F9B8D8C8D50
:1004800098131AC0E889F989808185FF15C09FB744
:10049000F894EE89FF896083E889F9898081837007
:1004A000806480839FBF81E090E0DF91CF911F91B6
:1004B0000F91FF90EF900895F62E0B8D10E00F5FD7
:1004C0001F4F0F731127E02E8C8D8E110CC00FB6AD
:1004D00007FCFACFE889F989808185FFF5CFCE0145
:1004E0000E941302F1CFEB8DEC0FFD2FF11DE35AAB
:1004F000FF4FF0829FB7F8940B8FEA89FB898081C8
:100500008062CFCFCF93DF93EC01888D8823B9F041
:10051000AA89BB89E889F9898C9185FD03C080810E
:1005200086FD0DC00FB607FCF7CF8C9185FFF2CF8B
:10053000808185FFEDCFCE010E941302E9CFDF91CC
:10054000CF91089580E090E0892B29F00E94090264
:1005500081110E94000080E090E0892B49F080E04A
:1005600090E0892B29F00E94000081110E94000078
:1005700080E090E0892B49F080E090E0892B29F021
:100580000E94000081110E94000080E090E0892B11
:1005900049F080E090E0892B29F00E940000811151
:1005A0000C9400000895282F30E0F901E057FE4F29
:1005B0009491F901E05BFD4F4491265F3D4FF901B5
:1005C0002491222309F435C0992311F191509231DD
:1005D000F8F4E92FF0E08827EF50FD4F8F4F0C948F
:1005E00027092203260303031A031E030803290312
:1005F0002F03330339033D03410347034B03080330
:100600004F0355035903809180008F7780938000BA
:10061000E22FF0E0EE0FFF1FEA52FE4FA591B491DA
:100620008FB7F894EC91611148C040954E234C93DC
:100630008FBF0895809180008F7DE8CF80918000EA
:10064000877FE4CF84B58F7784BDE2CF84B58F7D7B
:10065000FBCF8091B0008F778093B000D9CF80918D
:10066000B0008F7DF9CF809190008F7780939000BC
:10067000CFCF809190008F7DF9CF80919000877FC0
:10068000F5CF8091A0008F778093A000C1CF80919B
:10069000A0008F7DF9CF8091A000877FF5CF80915A
:1006A00020018F7780932001B3CF809120018F7D2F
:1006B000F9CF80912001877FF5CF4E2BB8CF1F93C4
:1006C000CF93DF93182FEB010E948001209739F41C
:1006D00060E0812FDF91CF911F910C94D302CF3F27
:1006E000D10511F461E0F5CFE12FF0E0E057FE4FC6
:1006F000E491E150E23108F0B3C0F0E08827EC5714
:10070000FC4F8F4F0C94270996039E03A303AD0360
:10071000B7033004C103C903D103DB03E503EF03CF
:10072000FE030804300412041C04260484B5806807
:1007300084BDC7BDDF91CF911F91089584B58062BC
:1007400084BDC8BDF7CF8091800080688093800011
:10075000D0938900C0938800EDCF809180008062A3
:1007600080938000D0938B00C0938A00E3CF809168
:100770008000886080938000D0938D00C0938C00AF
:10078000D9CF8091B00080688093B000C093B3004F
:10079000D1CF8091B00080628093B000C093B4004C
:1007A000C9CF80919000806880939000D093990089
:1007B000C0939800BFCF809190008062809390009A
:1007C000D0939B00C0939A00B5CF80919000886031
:1007D00080939000D0939D00C0939C00ABCF8091FC
:1007E000A00080688093A0008091A0008F7B809300
:1007F000A000D093A900C093A8009CCF8091A00036
:1008000080628093A000D093AB00C093AA0092CFE7
:100810008091A00088608093A000D093AD00C09329
:10082000AC0088CF80912001806880932001D09314
:100830002901C09328017ECF80912001806280939E
:100840002001D0932B01C0932A0174CF8091200105
:10085000886080932001D0932D01C0932C016ACF32
:10086000C038D1050CF03ECF33CF3FB7F89480911C
:10087000510290915202A0915302B091540226B5B8
:10088000A89B05C02F3F19F00196A11DB11D3FBFC8
:10089000BA2FA92F982F8827BC01CD01620F711D97
:1008A000811D911D42E0660F771F881F991F4A9591
:1008B000D1F708952FB7F89460914D0270914E02D0
:1008C00080914F02909150022FBF0895CF93DF93F4
:1008D000EC018B810E9480018C810E9480018D81BE
:1008E000DF91CF910C948001FC0101900020E9F789
:1008F0003197AF01481B590BBC0189E592E00C947C
:100900009F018F929F92AF92BF920F931F93CF93AD
:10091000DF93CDB7DEB7A1970FB6F894DEBF0FBE59
:10092000CDBF19A2423008F44AE08E010F5D1F4F7F
:10093000842E912CB12CA12CA50194010E940509B3
:10094000E62FB901CA01EA30F4F4E05DD801EE9374
:100950008D01232B242B252B79F790E080E0109735
:1009600019F0CD010E947404A1960FB6F894DEBF71
:100970000FBECDBFDF91CF911F910F91BF90AF9070
:100980009F908F900895E95CE1CFEF92FF920F93D3
:100990001F93CF93DF9300D01F92CDB7DEB789E5C9
:1009A00092E00E94DB0189E592E00E94DB018E016A
:1009B0000F5F1F4F78018A3341F0F80181938F0157
:1009C00089E592E00E94DB01F6CFC7010E94DF08B3
:1009D000182F89E592E00E94DB018053990B823049
:1009E000910520F4682F812F0E94D30289E592E0BF
:1009F0000E94DB018A3011F08D30C1F789E592E069
:100A00000E94EF018A3021F489E592E00E94DB0127
:100A10000F900F900F900F90DF91CF911F910F913A
:100A2000FF90EF9008951F920F920FB60F9211242E
:100A30000BB60F922F933F934F935F936F937F93D8
:100A40008F939F93AF93BF93EF93FF9389E592E0CA
:100A50000E941302FF91EF91BF91AF919F918F91EF
:100A60007F916F915F914F913F912F910F900BBEAE
:100A70000F900FBE0F901F9018951F920F920FB6F8
:100A80000F9211240BB60F922F938F939F93EF9396
:100A9000FF93E0916902F0916A028081E0916F0218
:100AA000F091700282FD1DC09081809172028F5F73
:100AB0008F7320917302821741F0E0917202F0E08F
:100AC000E75AFD4F958F80937202FF91EF919F91AE
:100AD0008F912F910F900BBE0F900FBE0F901F9014
:100AE00018958081F2CF1F920F920FB60F921124AA
:100AF0002F933F938F939F93AF93BF9380914D021A
:100B000090914E02A0914F02B091500230914C0250
:100B100023E0230F2D3758F50196A11DB11D209319
:100B20004C0280934D0290934E02A0934F02B093DB
:100B300050028091510290915202A0915302B091C3
:100B400054020196A11DB11D80935102909352024F
:100B5000A0935302B0935402BF91AF919F918F9194
:100B60003F912F910F900FBE0F901F90189526E880
:100B7000230F0296A11DB11DD2CF10925C021092DC
:100B80005B0288EE93E0A0E0B0E080935D0290937A
:100B90005E02A0935F02B09360028EE092E09093B9
:100BA0005A028093590285EC90E0909366028093FC
:100BB000650284EC90E0909368028093670280EC79
:100BC00090E090936A028093690281EC90E09093A8
:100BD0006C0280936B0282EC90E090936E028093A3
:100BE0006D0286EC90E09093700280936F021092F9
:100BF0007202109273021092740210927502109297
:100C0000FC021092FD021092FE021092FF0210925E
:100C1000000310920103109202031092030310923A
:100C2000040310920503109206031092070310921A
:100C300008031092090310920A0310920B03EEE6C8
:100C4000F3E08FEF808381838283369623E0EC3854
:100C5000F207C1F7ECE3F3E082E090E010829283C8
:100C6000818314821382359623E0EE36F207B1F7C2
:100C70000895CF93DF9300D000D0CDB7DEB778943E
:100C800084B5826084BD84B5816084BD85B5826091
:100C900085BD85B5816085BD80916E008160809342
:100CA0006E001092810080918100826080938100AB
:100CB00080918100816080938100809180008160BB
:100CC000809380008091B10084608093B100809116
:100CD000B00081608093B000809191008260809329
:100CE00091008091910081608093910080919000AB
:100CF0008160809390008091A10082608093A10028
:100D00008091A10081608093A1008091A00081600A
:100D10008093A000809121018260809321018091C5
:100D20002101816080932101809120018160809365
:100D3000200180917A00846080937A0080917A000B
:100D4000826080937A0080917A00816080937A003B
:100D500080917A00806880937A001092C10010928E
:100D600038031092390310923A0310923B03109209
:100D7000F8021092F9021092FA021092FB020E94FD
:100D80005A046B017C014B015C0128EB820E2BE0C5
:100D9000921EA11CB11C0E945A046C157D058E0583
:100DA0009F0528F086169706A806B906A0F70E94A8
:100DB00035044B015C0138EEC32E33E0D32EE12C19
:100DC000F12C0E943504681979098A099B09683E4B
:100DD000734081059105A8F331E0C31AD108E108F9
:100DE000F10848EE840E43E0941EA11CB11CC1140E
:100DF000D104E104F10429F7E0916902F0916A025B
:100E000082E08083E0916502F09166021082E091B9
:100E10006702F091680280E1808310927102E09194
:100E20006D02F0916E0286E08083E0916B02F0919A
:100E30006C02808180618083E0916B02F0916C0292
:100E4000808188608083E0916B02F0916C028081E8
:100E500080688083E0916B02F0916C0280818F7DCD
:100E600080830E945A046093F8027093F902809381
:100E7000FA029093FB028CE192E00E9474040E94BB
:100E80005A046B017C014B015C018AE0880E911CC5
:100E9000A11CB11C0E945A046C157D058E059F058E
:100EA00028F086169706A806B906A0F781E0809379
:100EB0000C030E945A046093F8027093F902809325
:100EC000FA029093FB028DE292E00E94740490E09B
:100ED000E92E92E0F92E0EE613E02AEAC22E23E074
:100EE000D22EBB24BA94C016D106A9F1F701808195
:100EF000F2E0EF0EF11CB982BA82BB828C8391E0E2
:100F0000980F9D8392E0980F9E830E9480018D81AF
:100F10000E9480018E810E948001698170E08C8135
:100F20000E945F036A8170E08D810E945F036B8184
:100F300070E08E810E945F0386E0FE013196D80149
:100F400001900D928A95E1F7CE0101960E94660408
:100F50000A5F1F4FC8CFECE3F3E090E080E022E0AF
:100F600030E0108232832183948383830196359607
:100F70008A309105B1F784EF882E99249394A12C9F
:100F8000B12C0E945A04672B682B692B09F4EFC01F
:100F90000E945A0400915502109156022091570266
:100FA00030915802601771078207930708F4EAC06E
:100FB000009155021091560220915702309158022B
:100FC0006B017C01C01AD10AE20AF30A970186017B
:100FD0000A3F11052105310508F4D1C0609355027F
:100FE00070935602809357029093580280920403A4
:100FF00090920503A0920603B09207031092080393
:101000001092090310920A0310920B038091FC02C4
:101010009091FD02A091FE02B091FF028093000327
:1010200090930103A0930203B09303030E945A0418
:101030006093FC027093FD028093FE029093FF0286
:1010400089E592E00E94EF01843611F40E94C50404
:101050000E945A046093F8027093F9028093FA0296
:101060009093FB020E945A046B017C0184E392E09E
:101070000E9474044AE061E070E080E090E00E9429
:1010800081048BE392E00E9474044AE0C701B60138
:101090000E9481048DE392E00E9474048091FC021E
:1010A0009091FD02A091FE02B091FF02A70196016E
:1010B000281B390B4A0B5B0BCA01B9014AE00E949D
:1010C00081048DE392E00E9474046091FC027091AF
:1010D000FD028091FE029091FF02009100031091A9
:1010E00001032091020330910303601B710B820BFB
:1010F000930B4AE00E9481048FE392E00E94740403
:101100000E945A044AE00E94810481E492E00E9415
:10111000740488E492E00E9474040E945A046B01F3
:101120007C012B013C0132E0430E511C611C711CFF
:101130000E945A046C157D058E059F0528F0461601
:10114000570668067906A0F789E592E00E94EF014C
:10115000843611F40E94C5040E945A046093FC0274
:101160007093FD028093FE029093FF0208C00E94DC
:101170005A04623071058105910508F009CF0E947B
:10118000A202FFCE609355027093560280935702DD
:10119000909358020DCF86E893E00E94660480E8A1
:1011A00093E00E9466048AE793E00E94660484E765
:1011B00093E00E9466048EE693E00C946604FC01C2
:1011C00088279927E89421912032E9F3293010F0FB
:1011D0002E30C8F32B3241F02D3239F4689404C01C
:1011E0000E94FD08820F911D219120532A30C0F3E7
:1011F0001EF4909581959F4F08957AE0979F902DCA
:10120000879F802D910D11240895A1E21A2EAA1B0B
:10121000BB1BFD010DC0AA1FBB1FEE1FFF1FA217A6
:10122000B307E407F50720F0A21BB30BE40BF50BA3
:10123000661F771F881F991F1A9469F7609570952C
:10124000809590959B01AC01BD01CF010895EE0FF3
:10125000FF1F881F8BBF0790F691E02D199411E0B6
:10126000CCE4D1E000E006C0802FFE010E942709F7
:101270002196011DCD34D10780E00807A9F7F89425
:02128000FFCF9E
:101282000200050008000B002C00000000003502DF
:101292009F01CC018202FD01DB01EF01564D44505A
:1012A200565F317C315F564D4450560A00564D44CC
:1012B20050525F00564D4450455F003A323A007C2E
:0C12C200005F564D445045000D0A00002E
:00000001FF
