:100000000C9428010C9459010C9459010C94590139
:100010000C9459010C9459010C9459010C945901F8
:100020000C9459010C9459010C9459010C945901E8
:100030000C9459010C9459010C9459010C945901D8
:100040000C9459010C9459010C9459010C945901C8
:100050000C9459010C9459010C9459010C9473049B
:100060000C9459010C943D040C9413040C94590104
:100070000C9459010C9459010C9459010C94590198
:100080000C9459010C9459010C9459010C94590188
:100090000C9459010C9459010C9459010C94590178
:1000A0000C9459010C9459010C9459010C94590168
:1000B0000C9459010C9459010C9459010C94590158
:1000C0000C9459010C9459010C9459010C94590148
:1000D0000C9459010C9459010C9459010C94590138
:1000E0000C9459010C94D2030C94C3030C94E203B6
:1000F0000C9410020C94F0030C94F4030C94A701DC
:100100000C9495030C94CA010C94BD040C94DC036C
:100110000C945D020C9402040C94FE030C94C7032F
:100120000C94F8030C94CF030C94CB030C94D803D9
:100130000C947A010C94E6030C9490030C94D8016F
:100140000C94EA030C94B60100000A0B02090C0D92
:100150000E0807030401000000000000000000007A
:10016000000000000000000000000000000000008F
:10017000000000001211100000000000000000004C
:10018000000000000000000000000000000000006F
:100190002200250028002B002E003100340002012F
:1001A0000000050108010B010000210024002700C8
:1001B0002A002D0030003300010100000401070176
:1001C0000A010505050507050808080802020202DC
:1001D0000A0A0808040404040101010101010101E3
:1001E0000303030303030303040707070C0C0C0CAE
:1001F0000C0C0C0C02020202060606060606060697
:100200000B0B0B0B0B0B0B0B010210202008081023
:100210002040102040800201020108040201010276
:10022000040810204080804020100804020180044F
:1002300002018040201008040201080402010102AA
:100240000408102040800102040810204080BD04F2
:1002500011241FBECFEFD1E2DEBFCDBF00E00CBF47
:1002600023E0ACE4B2E001C01D92AE36B207E1F784
:1002700012E0A0E0B2E0ECEBFFE000E00BBF02C058
:1002800007900D92AC34B107D9F711E0C8E2D1E084
:1002900000E006C021970109802FFE010E94D407CB
:1002A000C732D10780E00807A9F70E942E050C94F9
:1002B000DC070C94000090E0FC01E85FFD4F249106
:1002C0008E539E4FFC018491882399F090E0880F13
:1002D000991FFC01E855FE4FA591B491FC01E2572E
:1002E000FE4F859194918FB7F894EC91E22BEC93AB
:1002F0008FBF0895AF92BF92CF92DF92EF92FF929D
:100300000F931F93CF93DF936C017B018B01040F3D
:10031000151FEB015E01AE18BF08C017D10759F0D9
:100320006991D601ED91FC910190F081E02DC6011B
:100330001995892B79F7C501DF91CF911F910F9105
:10034000FF90EF90DF90CF90BF90AF900895FC01A9
:10035000538D448D252F30E0842F90E0821B930B2A
:10036000541710F0CF96089501970895FC01918DD0
:10037000828D981761F0A28DAE0FBF2FB11D5D96D3
:100380008C91928D9F5F9F73928F90E008958FEF75
:100390009FEF0895FC01918D828D981731F0828D29
:1003A000E80FF11D858D90E008958FEF9FEF089580
:1003B000FC01918D228D892F90E0805C9F4F821BE4
:1003C00091098F739927089589E592E00E94D801D9
:1003D00021E0892B09F420E0822F0895FC01A48DEF
:1003E000A80FB92FB11DA35ABF4F2C91848D90E057
:1003F00001968F739927848FA689B7892C93A0893A
:10040000B1898C91837080648C93938D848D9813C3
:1004100006C00288F389E02D80818F7D8083089556
:10042000EF92FF920F931F93CF93DF93EC0181E044
:10043000888F9B8D8C8D98131AC0E889F9898081EB
:1004400085FF15C09FB7F894EE89FF896083E8891E
:10045000F98980818370806480839FBF81E090E010
:10046000DF91CF911F910F91FF90EF900895F62E9D
:100470000B8D10E00F5F1F4F0F731127E02E8C8D37
:100480008E110CC00FB607FCFACFE889F98980817C
:1004900085FFF5CFCE010E94EE01F1CFEB8DEC0F81
:1004A000FD2FF11DE35AFF4FF0829FB7F8940B8F99
:1004B000EA89FB8980818062CFCFCF93DF93EC0103
:1004C000888D8823B9F0AA89BB89E889F9898C913C
:1004D00085FD03C0808186FD0DC00FB607FCF7CFF8
:1004E0008C9185FFF2CF808185FFEDCFCE010E94F8
:1004F000EE01E9CFDF91CF91089580E090E0892B64
:1005000029F00E94E40181110E94000080E090E047
:10051000892B49F080E090E0892B29F00E940000AF
:1005200081110E94000080E090E0892B49F080E07A
:1005300090E0892B29F00E94000081110E940000A8
:1005400080E090E0892B49F080E090E0892B29F051
:100550000E94000081110C94000008953FB7F894A8
:100560008091510290915202A0915302B091540295
:1005700026B5A89B05C02F3F19F00196A11DB11DFE
:100580003FBFBA2FA92F982F8827BC01CD01620F3A
:10059000711D811D911D42E0660F771F881F991FF5
:1005A0004A95D1F708952FB7F89460914D02709154
:1005B0004E0280914F02909150022FBF0895FC018E
:1005C00001900020E9F73197AF01481B590BBC019E
:1005D00089E592E00C947A018F929F92AF92BF923C
:1005E0000F931F93CF93DF93CDB7DEB7A1970FB6CD
:1005F000F894DEBF0FBECDBF19A2423008F44AE026
:100600008E010F5D1F4F842E912CB12CA12CA501C2
:1006100094010E94B207E62FB901CA01EA30F4F44E
:10062000E05DD801EE938D01232B242B252B79F748
:1006300090E080E0109719F0CD010E94DF02A196B2
:100640000FB6F894DEBF0FBECDBFDF91CF911F91E3
:100650000F91BF90AF909F908F900895E95CE1CF8C
:10066000EF92FF920F931F93CF93DF9300D01F92CF
:10067000CDB7DEB789E592E00E94B60189E592E048
:100680000E94B6018E010F5F1F4F78018A3341F03F
:10069000F80181938F0189E592E00E94B601F6CFBF
:1006A000C7010E948C078C0189E592E00E94B60187
:1006B000282F2053330BA9012230310508F046C002
:1006C00098013327F901E85BFE4F9491F901E85F47
:1006D000FD4F64912E533E4FF9012491222309F4DA
:1006E00035C0992311F191509231F8F4E92FF0E0DF
:1006F0008827E258FC4F8F4F0C94D407CB03CF03CD
:100700009003C303C7039503D203D803DC03E203BA
:10071000E603EA03F003F4039503F803FE0302047F
:10072000809180008F7780938000E22FF0E0EE0FC1
:10073000FF1FE257FE4FA591B4918FB7F894EC914B
:10074000411164C060956E236C938FBF89E592E080
:100750000E94B6018A3011F08D30C1F789E592E030
:100760000E94CA018A3009F053C089E592E00F90D7
:100770000F900F900F90DF91CF911F910F91FF90ED
:10078000EF900C94B601809180008F7DCCCF80914A
:100790008000877FC8CF84B58F7784BDC6CF84B5EE
:1007A0008F7DFBCF8091B0008F778093B000BDCF5D
:1007B0008091B0008F7DF9CF809190008F778093EA
:1007C0009000B3CF809190008F7DF9CF8091900001
:1007D000877FF5CF8091A0008F778093A000A5CF71
:1007E0008091A0008F7DF9CF8091A000877FF5CF09
:1007F000809120018F778093200197CF80912001F5
:100800008F7DF9CF80912001877FF5CF6E2B9CCF14
:100810000F900F900F900F90DF91CF911F910F913C
:10082000FF90EF9008951F920F920FB60F92112430
:100830000BB60F922F933F934F935F936F937F93DA
:100840008F939F93AF93BF93EF93FF9389E592E0CC
:100850000E94EE01FF91EF91BF91AF919F918F9117
:100860007F916F915F914F913F912F910F900BBEB0
:100870000F900FBE0F901F9018951F920F920FB6FA
:100880000F9211240BB60F922F938F939F93EF9398
:10089000FF93E0916902F0916A028081E0916F021A
:1008A000F091700282FD1DC09081809172028F5F75
:1008B0008F7320917302821741F0E0917202F0E091
:1008C000E75AFD4F958F80937202FF91EF919F91B0
:1008D0008F912F910F900BBE0F900FBE0F901F9016
:1008E00018958081F2CF1F920F920FB60F921124AC
:1008F0002F933F938F939F93AF93BF9380914D021C
:1009000090914E02A0914F02B091500230914C0252
:1009100023E0230F2D3758F50196A11DB11D20931B
:100920004C0280934D0290934E02A0934F02B093DD
:1009300050028091510290915202A0915302B091C5
:1009400054020196A11DB11D809351029093520251
:10095000A0935302B0935402BF91AF919F918F9196
:100960003F912F910F900FBE0F901F90189526E882
:10097000230F0296A11DB11DD2CF10925C021092DE
:100980005B0288EE93E0A0E0B0E080935D0290937C
:100990005E02A0935F02B09360028EE092E09093BB
:1009A0005A028093590285EC90E0909366028093FE
:1009B000650284EC90E0909368028093670280EC7B
:1009C00090E090936A028093690281EC90E09093AA
:1009D0006C0280936B0282EC90E090936E028093A5
:1009E0006D0286EC90E09093700280936F021092FB
:1009F0007202109273021092740210927502109299
:100A0000FC021092FD021092FE021092FF02109260
:100A1000000310920103109202031092030310923C
:100A2000040310920503109206031092070310921C
:100A300008031092090310920A0310920B03ECE3CF
:100A4000F3E082E090E0108292838183148213822B
:100A5000359623E0EE36F207B1F70895789484B521
:100A6000826084BD84B5816084BD85B5826085BDAA
:100A700085B5816085BD80916E00816080936E0038
:100A8000109281008091810082608093810080912A
:100A900081008160809381008091800081608093DB
:100AA00080008091B10084608093B1008091B0009B
:100AB00081608093B000809191008260809391006A
:100AC000809191008160809391008091900081607D
:100AD000809390008091A10082608093A10080911A
:100AE000A10081608093A1008091A000816080932B
:100AF000A0008091210182608093210180912101D9
:100B00008160809321018091200181608093200188
:100B100080917A00846080937A0080917A0082606C
:100B200080937A0080917A00816080937A0080912E
:100B30007A00806880937A001092C1001092380386
:100B40001092390310923A0310923B031092F8026C
:100B50001092F9021092FA021092FB020E94D30244
:100B60006B017C014B015C0128EB820E2BE0921E95
:100B7000A11CB11C0E94D3026C157D058E059F053A
:100B800028F086169706A806B906A0F70E94AE02BE
:100B90004B015C0198EEC92E93E0D92EE12CF12C8B
:100BA0000E94AE02681979098A099B09683E734060
:100BB00081059105A8F331E0C31AD108E108F108D5
:100BC00048EE840E43E0941EA11CB11CC114D10454
:100BD000E104F10429F7E0916902F0916A0282E0F0
:100BE0008083E0916502F09166021082E0916702D5
:100BF000F091680280E1808310927102E0916D02B1
:100C0000F0916E0286E08083E0916B02F0916C02BD
:100C1000808180618083E0916B02F0916C02808121
:100C200088608083E0916B02F0916C028081806823
:100C30008083E0916B02F0916C0280818F7D8083D4
:100C40000E94D3026093F8027093F9028093FA0233
:100C50009093FB028CE192E00E94DF020E94D3029B
:100C60006B017C014B015C018AE0880E911CA11C88
:100C7000B11C0E94D3026C157D058E059F0528F0DE
:100C800086169706A806B906A0F781E080930C03A4
:100C90000E94D3026093F8027093F9028093FA02E3
:100CA0009093FB028DE292E00E94DF02C0E0D2E06E
:100CB00004E112E00C171D0771F0F88022968F2DC9
:100CC0000E945B0181E08F0D0E945B0182E08F0D2D
:100CD0000E945B01EFCFECE3F3E090E080E022E0E4
:100CE00030E010823283218394838383019635968A
:100CF0008A309105B1F784EF882E99249394A12C22
:100D0000B12C0E94D302672B682B692B09F4F0C029
:100D10000E94D302C0905502D0905602E090570234
:100D2000F09058026C157D058E059F0508F4EBC008
:100D3000C0905502D0905602E0905702F0905802B1
:100D40009B01AC012C193D094E095F0969017A012B
:100D50003AEFC316D104E104F10408F4D1C0609362
:100D600055027093560280935702909358028092D6
:100D7000040390920503A0920603B0920703109219
:100D800008031092090310920A0310920B0380913A
:100D9000FC029091FD02A091FE02B091FF028093AF
:100DA000000390930103A0930203B09303030E94F6
:100DB000D3026093FC027093FD028093FE02909335
:100DC000FF0289E592E00E94CA01843611F40E9474
:100DD00030030E94D3026093F8027093F90280936B
:100DE000FA029093FB020E94D3026B017C0184E320
:100DF00092E00E94DF024AE061E070E080E090E073
:100E00000E94EC028BE392E00E94DF024AE0C701FD
:100E1000B6010E94EC028DE392E00E94DF02809115
:100E2000FC029091FD02A091FE02B091FF02A70189
:100E30009601281B390B4A0B5B0BCA01B9014AE02A
:100E40000E94EC028DE392E00E94DF026091FC02BE
:100E50007091FD028091FE029091FF02C09000030C
:100E6000D0900103E0900203F09003036C197D0918
:100E70008E099F094AE00E94EC028FE392E00E94F3
:100E8000DF020E94D3024AE00E94EC0281E492E079
:100E90000E94DF0288E492E00E94DF020E94D302F7
:100EA0006B017C012B013C0132E0430E511C611CA3
:100EB000711C0E94D3026C157D058E059F0528F0DC
:100EC0004616570668067906A0F789E592E00E9463
:100ED000CA01843611F40E9430030E94D302609349
:100EE000FC027093FD028093FE029093FF0208C003
:100EF0000E94D302623071058105910508F008CF88
:100F00000E947D02FECE609355027093560280933C
:100F10005702909358020CCFFC0188279927E89438
:100F200021912032E9F3293010F02E30C8F32B3212
:100F300041F02D3239F4689404C00E94AA07820F50
:100F4000911D219120532A30C0F31EF49095819574
:100F50009F4F08957AE0979F902D879F802D910D48
:100F600011240895A1E21A2EAA1BBB1BFD010DC07E
:100F7000AA1FBB1FEE1FFF1FA217B307E407F50749
:100F800020F0A21BB30BE40BF50B661F771F881F25
:100F9000991F1A9469F760957095809590959B01BB
:100FA000AC01BD01CF010895EE0FFF1F881F8BBF5D
:0C0FB0000790F691E02D1994F894FFCF03
:100FBC000200050008000B002C00000000001002CD
:100FCC007A01A7015D02D801B601CA01564D445001
:100FDC00565F317C315F564D4450560A00564D4495
:100FEC0050525F00564D4450455F003A323A007CF7
:0C0FFC00005F564D445045000D0A0000F7
:00000001FF
